:1000000009C023C015C014C013C012C058C010C00E
:100010000FC00EC011241FBECFE9CDBF20E0A0E667
:10002000B0E001C01D92A538B207E1F770D0C5C19C
:10003000E7CF80917700873024F086E080937700C7
:10004000089587FD1092770008951F920F920FB6C2
:100050000F9211248F939F93AF93BF9381E080936E
:100060006D00B19B1AC0C298809180009091810070
:10007000A0918200B09183008093690090936A0000
:10008000A0936B00B0936C00BF91AF919F918F9143
:100090000F900FBE0F901F90189580918000909147
:1000A0008100A0918200B0918300809365009093BD
:1000B0006600A0936700B0936800C29AE5CF1F92D4
:1000C0000F920FB60F9211248F939F93AF93BF930C
:1000D0008091800090918100A0918200B091830076
:1000E0000196A11DB11D8093800090938100A09383
:1000F0008200B093830081E080938400BF91AF9130
:100100009F918F910F900FBE0F901F90189587B3FE
:100110008D6187BBB998C098C29AC398C49885B7B7
:10012000816085BF8BB780648BBF8FB582608FBDC8
:1001300083B7846083BF12BE82E186BF89B78460C3
:1001400089BF88E199E20FB6F894A89581BD0FBEEA
:1001500091BDA8957894C1E080918400882309F42A
:100160006CC0A89510928400F894809180009091C2
:100170008100A0918200B091830080937C009093D5
:100180007D00A0937E00B0937F007894C0907C00A7
:10019000D0907D00E0907E00F0907F00809178000C
:1001A00090917900A0917A00B0917B00A70196010F
:1001B000281B390B4A0B5B0BDA01C90181379741C8
:1001C000A105B10530F080917700815080937700D0
:1001D00030DF8091770090917600992309F4B1C0C7
:1001E000843054F410927600C0927200D092730062
:1001F000E0927400F092750080917600882309F4F3
:10020000BBC0C09A80917C0090917D00A0917E003F
:10021000B0917F0040916E0050916F00609170002E
:1002200070917100841B950BA60BB70B8D3291401A
:10023000A105B10510F0C398C49880916D00882382
:1002400009F48ACF10926D00F894409169005091A2
:100250006A0060916B0070916C00809165009091D4
:100260006600A0916700B091680084179507A60703
:10027000B70708F083C08091690090916A00A0914F
:100280006B00B0916C0040916500509166006091E8
:10029000670070916800841B950B909364008093B5
:1002A0006300C09362007894809160009091610037
:1002B000853F21E0920740F020916200211104C0A7
:1002C0001092640010926300815496408B329140EA
:1002D00008F042CF80916200882309F43DCF8091DD
:1002E0007C0090917D00A0917E00B0917F00809372
:1002F000780090937900A0937A00B0937B0080916E
:100300007700209163003091640027503109253037
:10031000310508F04CC08F5F809377008ADEC39A66
:1003200080917C0090917D00A0917E00B0917F0033
:1003300080936E0090936F00A0937000B093710053
:100340000BCF85300CF458CF8091720090917300E0
:10035000A0917400B0917500C81AD90AEA0AFB0A84
:1003600041E9C41640EDD40643E0E406F10408F484
:1003700043CFC093760040CFC09844CF80916500B2
:1003800090916600A0916700B0916800409169006B
:1003900050916A0060916B0070916C00841B950B0A
:1003A0009093610080936000109262007CCF815036
:0E03B000809377003EDEC49AB3CFF894FFCF5F
:00000001FF
